{
  "_format": "hh-sol-artifact-1",
  "contractName": "Fake",
  "sourceName": "contracts/Fake.sol",
  "abi": [
    {
      "inputs": [],
      "stateMutability": "nonpayable",
      "type": "constructor"
    },
    {
      "anonymous": false,
      "inputs": [
        {
          "indexed": false,
          "internalType": "string",
          "name": "prd_id",
          "type": "string"
        }
      ],
      "name": "ProductUploaded",
      "type": "event"
    },
    {
      "anonymous": false,
      "inputs": [
        {
          "indexed": true,
          "internalType": "address",
          "name": "userAddress",
          "type": "address"
        },
        {
          "indexed": false,
          "internalType": "string",
          "name": "name",
          "type": "string"
        },
        {
          "indexed": false,
          "internalType": "enum Fake.UserRole",
          "name": "role",
          "type": "uint8"
        }
      ],
      "name": "UserAdded",
      "type": "event"
    },
    {
      "inputs": [
        {
          "internalType": "address",
          "name": "userAddress",
          "type": "address"
        },
        {
          "internalType": "string",
          "name": "name",
          "type": "string"
        },
        {
          "internalType": "string",
          "name": "password",
          "type": "string"
        },
        {
          "internalType": "enum Fake.UserRole",
          "name": "role",
          "type": "uint8"
        }
      ],
      "name": "addUser",
      "outputs": [],
      "stateMutability": "nonpayable",
      "type": "function"
    },
    {
      "inputs": [],
      "name": "admin",
      "outputs": [
        {
          "internalType": "address",
          "name": "",
          "type": "address"
        }
      ],
      "stateMutability": "view",
      "type": "function"
    },
    {
      "inputs": [
        {
          "internalType": "string",
          "name": "prd_id",
          "type": "string"
        }
      ],
      "name": "isReal",
      "outputs": [
        {
          "internalType": "bool",
          "name": "",
          "type": "bool"
        }
      ],
      "stateMutability": "view",
      "type": "function"
    },
    {
      "inputs": [
        {
          "internalType": "string",
          "name": "password",
          "type": "string"
        }
      ],
      "name": "login",
      "outputs": [
        {
          "internalType": "bool",
          "name": "success",
          "type": "bool"
        }
      ],
      "stateMutability": "view",
      "type": "function"
    },
    {
      "inputs": [
        {
          "internalType": "uint256",
          "name": "",
          "type": "uint256"
        }
      ],
      "name": "productIds",
      "outputs": [
        {
          "internalType": "string",
          "name": "",
          "type": "string"
        }
      ],
      "stateMutability": "view",
      "type": "function"
    },
    {
      "inputs": [
        {
          "internalType": "string",
          "name": "",
          "type": "string"
        }
      ],
      "name": "products",
      "outputs": [
        {
          "internalType": "string",
          "name": "prd_id",
          "type": "string"
        }
      ],
      "stateMutability": "view",
      "type": "function"
    },
    {
      "inputs": [
        {
          "internalType": "string",
          "name": "prd_id",
          "type": "string"
        }
      ],
      "name": "uploadProduct",
      "outputs": [],
      "stateMutability": "nonpayable",
      "type": "function"
    },
    {
      "inputs": [
        {
          "internalType": "address",
          "name": "",
          "type": "address"
        }
      ],
      "name": "users",
      "outputs": [
        {
          "internalType": "address",
          "name": "userAddress",
          "type": "address"
        },
        {
          "internalType": "string",
          "name": "name",
          "type": "string"
        },
        {
          "internalType": "string",
          "name": "password",
          "type": "string"
        },
        {
          "internalType": "enum Fake.UserRole",
          "name": "role",
          "type": "uint8"
        }
      ],
      "stateMutability": "view",
      "type": "function"
    }
  ],
  "bytecode": "0x60806040526001805534801561001457600080fd5b50336000806101000a81548173ffffffffffffffffffffffffffffffffffffffff021916908373ffffffffffffffffffffffffffffffffffffffff160217905550611b51806100646000396000f3fe608060405234801561001057600080fd5b50600436106100885760003560e01c8063a87430ba1161005b578063a87430ba14610139578063aa6baabd1461016c578063cb51bba914610188578063f851a440146101b857610088565b80630186a4231461008d5780633a7d280c146100bd578063916d9f8f146100ed578063a0bbcab11461011d575b600080fd5b6100a760048036038101906100a29190611124565b6101d6565b6040516100b491906111ec565b60405180910390f35b6100d760048036038101906100d29190611124565b610292565b6040516100e49190611229565b60405180910390f35b61010760048036038101906101029190611124565b6103be565b6040516101149190611229565b60405180910390f35b61013760048036038101906101329190611124565b61046b565b005b610153600480360381019061014e91906112a2565b6105d6565b6040516101639493929190611355565b60405180910390f35b610186600480360381019061018191906113cd565b610743565b005b6101a2600480360381019061019d91906114a2565b610efa565b6040516101af91906111ec565b60405180910390f35b6101c0610fa6565b6040516101cd91906114cf565b60405180910390f35b60048180516020810182018051848252602083016020850120818352809550505050505060009150905080600001805461020f90611519565b80601f016020809104026020016040519081016040528092919081815260200182805461023b90611519565b80156102885780601f1061025d57610100808354040283529160200191610288565b820191906000526020600020905b81548152906001019060200180831161026b57829003601f168201915b5050505050905081565b60008060048111156102a7576102a66112de565b5b600360003373ffffffffffffffffffffffffffffffffffffffff1673ffffffffffffffffffffffffffffffffffffffff16815260200190815260200160002060030160009054906101000a900460ff166004811115610309576103086112de565b5b0361031757600090506103b9565b816040516020016103289190611586565b60405160208183030381529060405280519060200120600360003373ffffffffffffffffffffffffffffffffffffffff1673ffffffffffffffffffffffffffffffffffffffff1681526020019081526020016000206002016040516020016103909190611635565b60405160208183030381529060405280519060200120036103b457600190506103b9565b600090505b919050565b600080600090505b60028054905081101561046057826040516020016103e49190611586565b604051602081830303815290604052805190602001206002828154811061040e5761040d61164c565b5b906000526020600020016040516020016104289190611635565b604051602081830303815290604052805190602001200361044d576001915050610466565b8080610458906116aa565b9150506103c6565b50600090505b919050565b6001600481111561047f5761047e6112de565b5b600360003373ffffffffffffffffffffffffffffffffffffffff1673ffffffffffffffffffffffffffffffffffffffff16815260200190815260200160002060030160009054906101000a900460ff1660048111156104e1576104e06112de565b5b14610521576040517f08c379a000000000000000000000000000000000000000000000000000000000815260040161051890611764565b60405180910390fd5b6040518060200160405280828152506004826040516105409190611586565b90815260200160405180910390206000820151816000019081610563919061191b565b5090505060028190806001815401808255809150506001900390600052602060002001600090919091909150908161059b919061191b565b507fd00dd35c3f6fe38ff22f0e9a094916931ae40908343821b9ae71882c6781f616816040516105cb91906111ec565b60405180910390a150565b60036020528060005260406000206000915090508060000160009054906101000a900473ffffffffffffffffffffffffffffffffffffffff169080600101805461061f90611519565b80601f016020809104026020016040519081016040528092919081815260200182805461064b90611519565b80156106985780601f1061066d57610100808354040283529160200191610698565b820191906000526020600020905b81548152906001019060200180831161067b57829003601f168201915b5050505050908060020180546106ad90611519565b80601f01602080910402602001604051908101604052809291908181526020018280546106d990611519565b80156107265780601f106106fb57610100808354040283529160200191610726565b820191906000526020600020905b81548152906001019060200180831161070957829003601f168201915b5050505050908060030160009054906101000a900460ff16905084565b600480811115610756576107556112de565b5b816004811115610769576107686112de565b5b03610a255760006004811115610782576107816112de565b5b600360003373ffffffffffffffffffffffffffffffffffffffff1673ffffffffffffffffffffffffffffffffffffffff16815260200190815260200160002060030160009054906101000a900460ff1660048111156107e4576107e36112de565b5b14806108635750600160048111156107ff576107fe6112de565b5b600360003373ffffffffffffffffffffffffffffffffffffffff1673ffffffffffffffffffffffffffffffffffffffff16815260200190815260200160002060030160009054906101000a900460ff166004811115610861576108606112de565b5b145b6108a2576040517f08c379a000000000000000000000000000000000000000000000000000000000815260040161089990611a39565b60405180910390fd5b60405180608001604052803373ffffffffffffffffffffffffffffffffffffffff1681526020018481526020018381526020018260048111156108e8576108e76112de565b5b815250600360003373ffffffffffffffffffffffffffffffffffffffff1673ffffffffffffffffffffffffffffffffffffffff16815260200190815260200160002060008201518160000160006101000a81548173ffffffffffffffffffffffffffffffffffffffff021916908373ffffffffffffffffffffffffffffffffffffffff1602179055506020820151816001019081610986919061191b565b50604082015181600201908161099c919061191b565b5060608201518160030160006101000a81548160ff021916908360048111156109c8576109c76112de565b5b02179055509050503373ffffffffffffffffffffffffffffffffffffffff167f8897d4c16f6b907647cc92f3b2f80418ac81581b8e74f9dda595d3910b44c8628483604051610a18929190611a59565b60405180910390a2610ef4565b60016004811115610a3957610a386112de565b5b816004811115610a4c57610a4b6112de565b5b1480610a7c575060026004811115610a6757610a666112de565b5b816004811115610a7a57610a796112de565b5b145b80610aab575060036004811115610a9657610a956112de565b5b816004811115610aa957610aa86112de565b5b145b15610ef35760008054906101000a900473ffffffffffffffffffffffffffffffffffffffff1673ffffffffffffffffffffffffffffffffffffffff163373ffffffffffffffffffffffffffffffffffffffff1614610b3e576040517f08c379a0000000000000000000000000000000000000000000000000000000008152600401610b3590611afb565b60405180910390fd5b60006004811115610b5257610b516112de565b5b600360003373ffffffffffffffffffffffffffffffffffffffff1673ffffffffffffffffffffffffffffffffffffffff16815260200190815260200160002060030160009054906101000a900460ff166004811115610bb457610bb36112de565b5b1480610c33575060016004811115610bcf57610bce6112de565b5b600360003373ffffffffffffffffffffffffffffffffffffffff1673ffffffffffffffffffffffffffffffffffffffff16815260200190815260200160002060030160009054906101000a900460ff166004811115610c3157610c306112de565b5b145b80610cb1575060026004811115610c4d57610c4c6112de565b5b600360003373ffffffffffffffffffffffffffffffffffffffff1673ffffffffffffffffffffffffffffffffffffffff16815260200190815260200160002060030160009054906101000a900460ff166004811115610caf57610cae6112de565b5b145b80610d2f575060036004811115610ccb57610cca6112de565b5b600360003373ffffffffffffffffffffffffffffffffffffffff1673ffffffffffffffffffffffffffffffffffffffff16815260200190815260200160002060030160009054906101000a900460ff166004811115610d2d57610d2c6112de565b5b145b610d6e576040517f08c379a0000000000000000000000000000000000000000000000000000000008152600401610d6590611a39565b60405180910390fd5b600084905060405180608001604052808273ffffffffffffffffffffffffffffffffffffffff168152602001858152602001848152602001836004811115610db957610db86112de565b5b815250600360008373ffffffffffffffffffffffffffffffffffffffff1673ffffffffffffffffffffffffffffffffffffffff16815260200190815260200160002060008201518160000160006101000a81548173ffffffffffffffffffffffffffffffffffffffff021916908373ffffffffffffffffffffffffffffffffffffffff1602179055506020820151816001019081610e57919061191b565b506040820151816002019081610e6d919061191b565b5060608201518160030160006101000a81548160ff02191690836004811115610e9957610e986112de565b5b02179055509050508073ffffffffffffffffffffffffffffffffffffffff167f8897d4c16f6b907647cc92f3b2f80418ac81581b8e74f9dda595d3910b44c8628584604051610ee9929190611a59565b60405180910390a2505b5b50505050565b60028181548110610f0a57600080fd5b906000526020600020016000915090508054610f2590611519565b80601f0160208091040260200160405190810160405280929190818152602001828054610f5190611519565b8015610f9e5780601f10610f7357610100808354040283529160200191610f9e565b820191906000526020600020905b815481529060010190602001808311610f8157829003601f168201915b505050505081565b60008054906101000a900473ffffffffffffffffffffffffffffffffffffffff1681565b6000604051905090565b600080fd5b600080fd5b600080fd5b600080fd5b6000601f19601f8301169050919050565b7f4e487b7100000000000000000000000000000000000000000000000000000000600052604160045260246000fd5b61103182610fe8565b810181811067ffffffffffffffff821117156110505761104f610ff9565b5b80604052505050565b6000611063610fca565b905061106f8282611028565b919050565b600067ffffffffffffffff82111561108f5761108e610ff9565b5b61109882610fe8565b9050602081019050919050565b82818337600083830152505050565b60006110c76110c284611074565b611059565b9050828152602081018484840111156110e3576110e2610fe3565b5b6110ee8482856110a5565b509392505050565b600082601f83011261110b5761110a610fde565b5b813561111b8482602086016110b4565b91505092915050565b60006020828403121561113a57611139610fd4565b5b600082013567ffffffffffffffff81111561115857611157610fd9565b5b611164848285016110f6565b91505092915050565b600081519050919050565b600082825260208201905092915050565b60005b838110156111a757808201518184015260208101905061118c565b60008484015250505050565b60006111be8261116d565b6111c88185611178565b93506111d8818560208601611189565b6111e181610fe8565b840191505092915050565b6000602082019050818103600083015261120681846111b3565b905092915050565b60008115159050919050565b6112238161120e565b82525050565b600060208201905061123e600083018461121a565b92915050565b600073ffffffffffffffffffffffffffffffffffffffff82169050919050565b600061126f82611244565b9050919050565b61127f81611264565b811461128a57600080fd5b50565b60008135905061129c81611276565b92915050565b6000602082840312156112b8576112b7610fd4565b5b60006112c68482850161128d565b91505092915050565b6112d881611264565b82525050565b7f4e487b7100000000000000000000000000000000000000000000000000000000600052602160045260246000fd5b6005811061131e5761131d6112de565b5b50565b600081905061132f8261130d565b919050565b600061133f82611321565b9050919050565b61134f81611334565b82525050565b600060808201905061136a60008301876112cf565b818103602083015261137c81866111b3565b9050818103604083015261139081856111b3565b905061139f6060830184611346565b95945050505050565b600581106113b557600080fd5b50565b6000813590506113c7816113a8565b92915050565b600080600080608085870312156113e7576113e6610fd4565b5b60006113f58782880161128d565b945050602085013567ffffffffffffffff81111561141657611415610fd9565b5b611422878288016110f6565b935050604085013567ffffffffffffffff81111561144357611442610fd9565b5b61144f878288016110f6565b9250506060611460878288016113b8565b91505092959194509250565b6000819050919050565b61147f8161146c565b811461148a57600080fd5b50565b60008135905061149c81611476565b92915050565b6000602082840312156114b8576114b7610fd4565b5b60006114c68482850161148d565b91505092915050565b60006020820190506114e460008301846112cf565b92915050565b7f4e487b7100000000000000000000000000000000000000000000000000000000600052602260045260246000fd5b6000600282049050600182168061153157607f821691505b602082108103611544576115436114ea565b5b50919050565b600081905092915050565b60006115608261116d565b61156a818561154a565b935061157a818560208601611189565b80840191505092915050565b60006115928284611555565b915081905092915050565b60008190508160005260206000209050919050565b600081546115bf81611519565b6115c9818661154a565b945060018216600081146115e457600181146115f95761162c565b60ff198316865281151582028601935061162c565b6116028561159d565b60005b8381101561162457815481890152600182019150602081019050611605565b838801955050505b50505092915050565b600061164182846115b2565b915081905092915050565b7f4e487b7100000000000000000000000000000000000000000000000000000000600052603260045260246000fd5b7f4e487b7100000000000000000000000000000000000000000000000000000000600052601160045260246000fd5b60006116b58261146c565b91507fffffffffffffffffffffffffffffffffffffffffffffffffffffffffffffffff82036116e7576116e661167b565b5b600182019050919050565b7f4f6e6c79206d616e7566616374757265722063616e20706572666f726d20746860008201527f697320616374696f6e0000000000000000000000000000000000000000000000602082015250565b600061174e602983611178565b9150611759826116f2565b604082019050919050565b6000602082019050818103600083015261177d81611741565b9050919050565b60006020601f8301049050919050565b600082821b905092915050565b6000600883026117d17fffffffffffffffffffffffffffffffffffffffffffffffffffffffffffffffff82611794565b6117db8683611794565b95508019841693508086168417925050509392505050565b6000819050919050565b600061181861181361180e8461146c565b6117f3565b61146c565b9050919050565b6000819050919050565b611832836117fd565b61184661183e8261181f565b8484546117a1565b825550505050565b600090565b61185b61184e565b611866818484611829565b505050565b5b8181101561188a5761187f600082611853565b60018101905061186c565b5050565b601f8211156118cf576118a08161159d565b6118a984611784565b810160208510156118b8578190505b6118cc6118c485611784565b83018261186b565b50505b505050565b600082821c905092915050565b60006118f2600019846008026118d4565b1980831691505092915050565b600061190b83836118e1565b9150826002028217905092915050565b6119248261116d565b67ffffffffffffffff81111561193d5761193c610ff9565b5b6119478254611519565b61195282828561188e565b600060209050601f8311600181146119855760008415611973578287015190505b61197d85826118ff565b8655506119e5565b601f1984166119938661159d565b60005b828110156119bb57848901518255600182019150602085019450602081019050611996565b868310156119d857848901516119d4601f8916826118e1565b8355505b6001600288020188555050505b505050505050565b7f5573657220616c72656164792065786973747300000000000000000000000000600082015250565b6000611a23601383611178565b9150611a2e826119ed565b602082019050919050565b60006020820190508181036000830152611a5281611a16565b9050919050565b60006040820190508181036000830152611a7381856111b3565b9050611a826020830184611346565b9392505050565b7f4f6e6c792061646d696e2063616e206164642075736572732077697468204d6160008201527f6e75666163747572657220726f6c650000000000000000000000000000000000602082015250565b6000611ae5602f83611178565b9150611af082611a89565b604082019050919050565b60006020820190508181036000830152611b1481611ad8565b905091905056fea26469706673582212208426d931b1b748882f6318d803693dee319ffd7b95879964c6a1d4850c25f9b764736f6c63430008110033",
  "linkReferences": {},
  "deployedLinkReferences": {}
}